:020000040800F2
:100000000050002071140008F7130008F9130008CD
:10001000FB130008FD130008FF1300080000000098
:1000200000000000000000000000000001140008B3
:10003000031400080000000005140008071400085D
:10004000B9140008B9140008B9140008B91400085C
:10005000B9140008B9140008B9140008B91400084C
:10006000B9140008B9140008B9140008B91400083C
:10007000B9140008B9140008B9140008B91400082C
:10008000B9140008B9140008B9140008B91400081C
:10009000B9140008B9140008B9140008B91400080C
:1000A000B9140008B9140008B9140008B9140008FC
:1000B00015140008B9140008B9140008B914000890
:1000C000B9140008B9140008B9140008B9140008DC
:1000D000B9140008B9140008B9140008B9140008CC
:1000E000B9140008B9140008B91400080000000091
:1000F0000000000000000000000000000000000000
:0C01000000000000000000005FF808F1A3
:10010C0010B5054C237833B9044B13B10448AFF345
:10011C0000800123237010BDA4000020000000000B
:10012C00041500080C4B43B10C4810B50C49AFF347
:10013C0000800C48036823B910BD0A48036833B922
:10014C007047094B002BF7D0BDE810401847064B01
:10015C00002BF5D0184700BF000000000415000864
:10016C00A8000020A40000200000000010B50446E8
:10017C000E4B18784FF47A73B3FBF0F30C4A1068FB
:10018C00B0FBF3F000F08AF868B90F2C01D901200C
:10019C0010BD002221464FF0FF3000F041F8034B18
:1001AC005C60002010BD012010BD00BF00000020CD
:1001BC00A000002008B5074A136843F01003136031
:1001CC00032000F01BF80020FFF7D0FF01F0A0F88F
:1001DC00002008BD00200240034A1168034B1B7825
:1001EC000B441360704700BFC000002000000020CB
:1001FC00014B1868704700BFC0000020074AD36845
:10020C0023F4E0631B041B0C000200F4E0601843B1
:10021C0040F0BF6040F40030D060704700ED00E06B
:10022C0030B4164BDB68C3F30223C3F10704042C70
:10023C0028BF04241D1D062D17D9033B012505FAE3
:10024C0004F4013C2140994005FA03F3013B1340AF
:10025C00194300280BDB0901C9B200F1604000F51D
:10026C00614080F8001330BC70470023E6E700F0D3
:10027C000F000901C9B2024B1954F4E700ED00E07C
:10028C0014ED00E0420900F01F00012303FA00F016
:10029C00014B43F82200704700E100E00138B0F157
:1002AC00807F0AD2064B5860F021064A82F8231050
:1002BC000020986007221A6070470120704700BF29
:1002CC0010E000E000ED00E0042805D0054A1368BA
:1002DC0023F0040313607047024A136843F00403CD
:1002EC001360704710E000E0704708B5FFF7FCFFA3
:1002FC0008BD0000F0B583B00026344671E0002D37
:10030C0000F0A180012D00D1CE68FF2B00F2AF8050
:10031C008646FF2B00F2AE80A500DEF800200F27EA
:10032C00AF4022EA070206FA05F52A43CEF8002070
:10033C004A6812F0805F53D0634A956945F0010515
:10034C009561926902F001020192019AA508AF1C15
:10035C005E4A52F8272004F00307BF004FF00F0E3F
:10036C000EFA07FE22EA0E02DFF870E1704500F08B
:10037C0088800EF5806E704500F086800EF5806EDC
:10038C00704500F084800EF5806E704576D04FF08D
:10039C00040E0EFA07F73A4302354C4F47F8252066
:1003AC004A6812F4803F75D0494D2A681A432A6076
:1003BC004A6812F4003F73D0454D6A681A436A606C
:1003CC004A6812F4801F71D0414DAA681A43AA6082
:1003DC004A6812F4001F6FD03D4DEA681343EB607E
:1003EC0001340F2C6ED80122A2400B6813409A42A4
:1003FC00F6D14D68122D30D00BD8022D2AD07FF6B5
:10040C007EAF032D2FD0112D7FF47FAFCE68043635
:10041C007BE7304FBD4216D00CD92F4FBD4212D0C6
:10042C0007F58037BD420ED0A7F58017BD427FF48B
:10043C006CAF08E0A7F58017BD4204D007F58037F4
:10044C00BD427FF462AF8D687DB1012D08D0426151
:10045C0008265AE7CE68083657E7CE680C3654E7BC
:10046C000261082651E700264FE704264DE700F10C
:10047C00040E4EE7A4F10805AD004EE74FF0030E55
:10048C0087E74FF0000E84E74FF0010E81E74FF045
:10049C00020E7EE70E4D2A6822EA03022A6087E7E5
:1004AC000B4D6A6822EA03026A6089E7084DAA6864
:1004BC0022EA0302AA608BE7054DEA6822EA0303ED
:1004CC00EB608DE703B0F0BD00100240000001406E
:1004DC000004014000002110000031100008014010
:1004EC0012B90904016170470161704782B0084B71
:1004FC001B68084AA2FB03235B0A00FB03F0019074
:10050C0000BF019B5A1E0192002BF9D102B070471B
:10051C00A0000020D34D621070B582B00446036871
:10052C0013F0010F3DD0AC4B5B6803F00C03042BB4
:10053C002ED0A94B5B6803F00C03082B23D0636807
:10054C00B3F5803F51D0002B55D103F1804303F517
:10055C0004331A6822F480321A601A6822F480225A
:10056C001A606368002B60D0FFF742FE05469A4B79
:10057C001B6813F4003F14D1FFF73AFE401B6428AC
:10058C00F5D90320AFE1944B5B6813F4803FD6D0D0
:10059C00914B1B6813F4003F03D06368002B00F0F1
:1005AC009F81236813F0020F65D08B4B5B6813F0AF
:1005BC000C0F4ED0884B5B6803F00C03082B43D018
:1005CC002369002B79D00122844B1A60FFF710FEAF
:1005DC000546814B1B6813F0020F65D1FFF708FE2F
:1005EC00401B0228F5D903207DE17B4A136843F4B4
:1005FC0080331360B5E7B3F5A02F09D0764B1A689A
:10060C0022F480321A601A6822F480221A60A8E759
:10061C0003F18043A3F53C331A6842F480221A603C
:10062C001A6842F480321A609BE7FFF7E1FD054639
:10063C00694B1B6813F4003FB3D0FFF7D9FD401B87
:10064C006428F5D903204EE1634B5B6813F4803FBB
:10065C00B6D1614B1B6813F0020F04D02369012B38
:10066C0001D001203FE15C4A136823F0F803616973
:10067C0043EAC1031360236813F0080F32D0A36957
:10068C00002B6ED00122564B1A60FFF7B1FD0546C8
:10069C00514B5B6A13F0020F21D1FFF7A9FD401BF0
:1006AC000228F5D903201EE14B4A136823F0F80306
:1006BC00616943EAC1031360DDE70022474B1A600E
:1006CC00FFF796FD0546444B1B6813F0020FD2D082
:1006DC00FFF78EFD401B0228F5D9032003E1012012
:1006EC00FFF704FF236813F0040F00F099803A4BD6
:1006FC00DB6913F0805F46D1374BDA6942F08052E8
:10070C00DA61DB6903F080530193019B0125354BC2
:10071C001B6813F4807F38D0E368012B49D0002B81
:10072C004DD103F1804303F504331A6A22F0010220
:10073C001A621A6A22F004021A62E368002B5DD076
:10074C00FFF756FD0646244B1B6A13F0020F66D1C9
:10075C00FFF74EFD801B41F288339842F3D90320FA
:10076C00C1E000221E4B1A60FFF742FD05461A4BF2
:10077C005B6A13F0020FB5D0FFF73AFD401B02285D
:10078C00F5D90320AFE00025C1E7164A136843F4FE
:10079C0080731360FFF72CFD0646124B1B6813F495
:1007AC00807FB9D1FFF724FD801B6428F5D9032085
:1007BC0099E0094A136A43F001031362BDE7052B64
:1007CC0012D0054B1A6A22F001021A621A6A22F040
:1007DC0004021A62B1E700BF00100240000042425E
:1007EC008004424200700040414B1A6A42F00402FD
:1007FC001A621A6A42F001021A629EE7FFF7F8FCCD
:10080C0006463B4B1B6A13F0020F08D0FFF7F0FCB7
:10081C00801B41F288339842F3D9032063E0E5B999
:10082C00E369002B5ED0324A526802F00C02082AAF
:10083C005BD0022B17D000222E4B1A60FFF7D8FC8E
:10084C0004462B4B1B6813F0007F47D0FFF7D0FCFE
:10085C00001B0228F5D9032045E0254AD36923F073
:10086C008053D361DCE70022224B1A60FFF7C0FCF7
:10087C0005461F4B1B6813F0007F06D0FFF7B8FC32
:10088C00401B0228F5D903202DE0236AB3F5803FE5
:10089C001AD017494B6823F47413226A606A024316
:1008AC0013434B600122134B1A60FFF7A1FC044663
:1008BC000F4B1B6813F0007F0ED1FFF799FC001B48
:1008CC000228F5D903200EE0094A536823F40033BB
:1008DC00A1680B435360DCE7002004E0002002E039
:1008EC00012000E0002002B070BD0120FBE700BF3A
:1008FC00001002406000424210B586B0154C94E8DE
:10090C000F000DF1180E0EE90F00238AADF804301C
:10091C00114B5B6803F00C02082A18D1C3F3834215
:10092C00724412F8102C13F4803F03D10B4800FBD7
:10093C0002F00DE0084B5B68C3F34043734413F8BB
:10094C00143C074800FB02F0B0FBF3F000E0044855
:10095C0006B010BD1C1500080010024000093D0037
:10096C0000127A00594B1B6803F007038B420CD220
:10097C00564A136823F007030B431360136803F004
:10098C000703994201D00120704770B5036813F03A
:10099C00020F06D04E4A536823F0F00384682343B9
:1009AC0053600D460446036813F0010F52D04368A0
:1009BC00012B23D0022B28D0454A126812F0020FCB
:1009CC0000F0828042494A6822F0030213434B60D4
:1009DC00FFF70EFC06466368012B1DD0022B2AD0B4
:1009EC003B4B5B6813F00C0F34D0FFF701FC801B02
:1009FC0041F288339842F3D9032070BD344A12680F
:100A0C0012F4003FDED1012070BD314A126812F0A1
:100A1C00007FD7D1012070BD2D4B5B6803F00C0318
:100A2C00042B17D0FFF7E4FB801B41F2883398426C
:100A3C00F2D9032070BD264B5B6803F00C03082B26
:100A4C0008D0FFF7D5FB801B41F288339842F2D9CE
:100A5C00032070BD1D4B1B6803F007039D420CD295
:100A6C001A4A136823F007032B431360136803F02F
:100A7C0007039D4201D0012070BD236813F0040FC1
:100A8C0006D0134A536823F4E063E1680B435360C8
:100A9C00236813F0080F07D00D4A536823F46053F2
:100AAC00216943EAC1035360FFF726FF084B5B68DB
:100ABC00C3F30313074AD35CD840074B18600020DC
:100ACC00FFF754FB002070BD012070BD00200240D8
:100ADC000010024030150008A0000020014B1868DF
:100AEC00704700BFA000002010B4036A046A24F011
:100AFC0001040462846924F0F00444EA021223F035
:100B0C000A030B438261036210BC704710B4036A82
:100B1C0023F0100303628469036A24F4704444EAEA
:100B2C00023223F0A00343EA01138261036210BC7A
:100B3C007047836823F0700341F007010B43836017
:100B4C00704710B4846824F47F4442EA03231943A9
:100B5C000C43846010BC70470268D36843F00103F7
:100B6C00D3600268136843F00103136000207047E0
:100B7C000268D36823F00103D3600368196A41F259
:100B8C001112114208D1196A40F24442114203D1A8
:100B9C001A6822F001021A600020704790F83C306D
:100BAC00012B7DD010B50446012380F83C30022384
:100BBC0080F83D300268936823F47F4323F0770379
:100BCC0093600B68402B57D010D9702B3ED01FD898
:100BDC00502B47D0602B32D1CA6849680068FFF7A8
:100BEC0095FF60212068FFF7A4FF28E0102B4DD063
:100BFC0008D9202B4FD0302B21D130210068FFF7A2
:100C0C0098FF1CE0DBB900210068FFF792FF16E0AB
:100C1C00B3F5805F0ED0B3F5005F10D1CB684A6896
:100C2C0089680068FFF78DFF2268936843F480435E
:100C3C00936004E00268936823F007039360012338
:100C4C0084F83D30002084F83C0010BDCB684A6825
:100C5C0089680068FFF775FF2268936843F0770393
:100C6C009360ECE7CA6849680068FFF73DFF5021C4
:100C7C002068FFF75EFFE2E7CA6849680068FFF783
:100C8C0033FF40212068FFF754FFD8E7102100689C
:100C9C00FFF74FFFD3E720210068FFF74AFFCEE7AD
:100CAC0002207047704770477047704710B5044674
:100CBC0003681A6912F0020F11D0DA6812F0020FF1
:100CCC000DD06FF002021A610123037703689B6950
:100CDC0013F0030F70D0FFF7E6FF00232377236890
:100CEC001A6912F0040F12D0DA6812F0040F0ED049
:100CFC006FF004021A610223237723689B6913F4B3
:100D0C00407F5FD02046FFF7CEFF00232377236878
:100D1C001A6912F0080F12D0DA6812F0080F0ED010
:100D2C006FF008021A61042323772368DB6913F040
:100D3C00030F4ED02046FFF7B6FF0023237723681E
:100D4C001A6912F0100F12D0DA6812F0100F0ED0D0
:100D5C006FF010021A61082323772368DB6913F400
:100D6C00407F3DD02046FFF79EFF0023237723686A
:100D7C001A6912F0010F03D0DA6812F0010F36D1A4
:100D8C0023681A6912F0800F03D0DA6812F0800F12
:100D9C0034D123681A6912F0400F03D0DA6812F0CC
:100DAC00400F32D123681A6912F0200F03D0DA6891
:100DBC0012F0200F30D110BDFFF774FF2046FFF763
:100DCC0073FF8AE72046FFF76DFF2046FFF76CFFA5
:100DDC009BE72046FFF766FF2046FFF765FFACE771
:100DEC002046FFF75FFF2046FFF75EFFBDE76FF081
:100DFC0001021A61204600F0BDF9C1E76FF08002D4
:100E0C001A61204600F08FF8C3E76FF040021A61B8
:100E1C002046FFF74AFFC5E76FF020021A61204613
:100E2C0000F080F8C7E7000003681C4A904227D006
:100E3C00B0F1804F24D0A2F59432904220D002F52C
:100E4C00806290421CD0154A90421ED0B0F1804F67
:100E5C001BD0A2F59432904217D002F580629042DA
:100E6C0013D023F080034A69134303608B68C36279
:100E7C000B688362094B98420CD001234361704785
:100E8C0023F070034A681343DDE723F44073CA6808
:100E9C001343E6E70B690363EFE700BF002C014047
:100EAC00A8B110B5044690F83D305BB1022384F82C
:100EBC003D30211D2068FFF7B7FF012384F83D303A
:100ECC00002010BD80F83C3000F072FAEEE70120F3
:100EDC00704790F83C30012B22D030B4012280F8BE
:100EEC003C20022380F83D300468636823F07003D3
:100EFC006360046863680D682B4363600468A368CF
:100F0C0023F08003A3600468A36849680B43A360C3
:100F1C0080F83D20002380F83C30184630BC7047E8
:100F2C00022070477047704770B4002310E051F8EE
:100F3C002350A56150F8234052F82350E56150F836
:100F4C00235052F8234051F82360A41B6C600133EA
:100F5C0050F82340002CEAD103685D680A225A61DC
:100F6C00012302E00B2151610133194650F8232073
:100F7C006AB15468A542F5DA0A25556101F180423F
:100F8C00013A50F822200B2151612546ECE7002450
:100F9C00224600E0013250F8223033B159690A2957
:100FAC00F8D15C68F6E79460013350F82320002AEE
:100FBC00F9D100E0013250F8223043B159690A29C5
:100FCC00F8D05C689968C1EB4401D960F2E770BC59
:100FDC00704770B400252B4607E0002111610125F4
:100FEC0001598A6901328A6101339C0050F823202F
:100FFC00C2B151690A29F7D19669D1698E42ECDAEE
:10100C0001211161ECE7012119610359D9689E682E
:10101C00A1EB4601D9600359D9685C6801EB440126
:10102C00D9600132940050F8223063B159690A2911
:10103C00F7D02DB9D9680029E5DA00211961EAE762
:10104C0000211961EDE770BC7047002302E000211C
:10105C001161013350F82320002AF8D1704738B5BC
:10106C000546002403E0586A00F08CF8013455F86A
:10107C00243033B11A69012AF5D0586A00F098F877
:10108C00F4E738BD10B50446114B1B680C2B02D08D
:10109C000D2B10D010BDFFF7D8FF2046FFF7DFFF58
:1010AC002046FFF796FF41F2707000F097F80D2282
:1010BC00074B1A6010BDFFF7D2FF0C22044B1A60CD
:1010CC00022000F08BF80348FFF752FD10BD00BF63
:1010DC0008000020C40000202DE9F04188B0224B0C
:1010EC009A6942F020029A619A6902F020020192F8
:1010FC00019A9A6942F008029A619A6902F0080210
:10110C000292029A9A6942F004029A619B6903F076
:10111C0004030393039BDFF8588000224FF44041F3
:10112C004046FFF7DDF9114C00224FF44071204688
:10113C00FFF7D6F94FF44043049301270597002697
:10114C0006960225079504A94046FFF7D3F84FF4FD
:10115C004073049305970696079504A92046FFF75C
:10116C00C9F808B0BDE8F081001002400008014049
:10117C00000C014008B50248FFF784FF08BD00BF12
:10118C000C00002008B5082802D0092807D008BD9B
:10119C0001224FF480710548FFF7A2F908BD012226
:1011AC004FF400710148FFF79BF908BD000801409E
:1011BC0008B5082802D0092807D008BD00224FF432
:1011CC0080710548FFF78CF908BD00224FF40071BF
:1011DC000148FFF785F908BD00080140014B1B6869
:1011EC00D8627047C4000020FEE7000000B587B04D
:1011FC0018484FF0804303604FF41663436000239C
:10120C00836041F27072C260036180238361FFF7D7
:10121C0047FE98B906A94FF4805341F8103D0D488C
:10122C00FFF7BCFC70B90023009301936946094891
:10123C00FFF74FFE50B907B05DF804FBD22106480A
:10124C00FFF7D2FFD8210448FFF7CEFFDF21024879
:10125C00FFF7CAFFC40000204815000800B591B084
:10126C00012206924FF480330793002108910A92D1
:10127C0002220D920E934FF4E0130F9306A8FFF782
:10128C004BF908BB0F230193022102910023039316
:10129C004FF480620492059301A8FFF763FBB8B981
:1012AC00FFF71CFC0C4BA3FB00308009FEF7F6FF8C
:1012BC000420FFF709F8002211464FF0FF30FEF72B
:1012CC00AFFF11B05DF804FBA6210448FFF78CFFBB
:1012DC00B4210248FFF788FFD34D6210481500086F
:1012EC0008B5094800F10C0200F11401FFF71CFECF
:1012FC00FEF760FFFFF7B2FFFFF7EEFEFFF776FF9A
:10130C000248FFF729FCFBE70C000020C40000207A
:10131C0000B583B0244B9A6942F001029A619A6934
:10132C0002F001020092009ADA6942F08052DA610E
:10133C00DB6903F080530193019B0320FEF75EFFF2
:10134C00002211466FF00B00FEF76AFF00221146D7
:10135C006FF00A00FEF764FF002211466FF00900DF
:10136C00FEF75EFF002211466FF00400FEF758FFF7
:10137C00002211466FF00300FEF752FF00221146C7
:10138C006FF00100FEF74CFF002211464FF0FF30CA
:10139C00FEF746FF054A536823F0E06343F0007301
:1013AC00536003B05DF804FB0010024000000140E4
:1013BC000368B3F1804F00D0704700B583B003F5DC
:1013CC000433DA6942F00102DA61DB6903F00103EC
:1013DC000193019B002211461C20FEF721FF1C20CB
:1013EC00FEF750FF03B05DF804FB7047FEE7FEE725
:1013FC00FEE7FEE770477047704708B5FEF7ECFE56
:10140C00FEF773FF08BD000008B50248FFF74EFC5D
:10141C0008BD00BFC40000200F4B1A6842F0010247
:10142C001A6059680D4A0A405A601A6822F0847290
:10143C0022F480321A601A6822F480221A605A68E8
:10144C0022F4FE025A604FF41F029A604FF00062C1
:10145C00034B9A60704700BF001002400000FFF879
:10146C0000ED00E0002103E00B4B5B5843500431CE
:10147C000A480B4B42189A42F6D30A4A02E0002360
:10148C0042F8043B084B9A42F9D3FFF7C5FF00F032
:10149C000FF8FFF725FF70476015000800000020CB
:1014AC00A4000020A400002004010020FEE700009E
:1014BC0070B500250C4E0D4CA41BA410A54209D1EF
:1014CC0000F01AF800250A4E0A4CA41BA410A542E1
:1014DC0005D170BD56F8253098470135EEE756F822
:1014EC00253098470135F2E75815000858150008C3
:1014FC00581500085C150008F8B500BFF8BC08BC0E
:10150C009E467047F8B500BFF8BC08BC9E467047B5
:10151C0002030405060708090A0B0C0D0E0F101028
:10152C0001020000000000000000000001020304A2
:10153C000607080900000000010203042E2E2F5399
:0C154C0072632F6D61696E2E6300000059
:041558003101000855
:04155C000D01000875
:1015600001000000100000000D00000078000020C5
:1015700050000020000000000800000006000000ED
:1015800003000000020000005A00000000000000FC
:101590000000000000000000000000000B00000040
:1015A0000000000000000000410000000A000000F0
:1015B00059000000000000000000000000000000D2
:1015C000000000000B000000000000000000000010
:1015D0004100000009000000580000000000000069
:1015E0000000000000000000000000000B000000F0
:1015F00000000000000000004100000008000000A2
:0416000000A24A04F6
:04000005080014716A
:00000001FF
